{
  "abi": [
    {
      "inputs": [
        {
          "internalType": "string",
          "name": "baseURI",
          "type": "string"
        }
      ],
      "stateMutability": "nonpayable",
      "type": "constructor"
    },
    {
      "anonymous": false,
      "inputs": [
        {
          "indexed": true,
          "internalType": "address",
          "name": "owner",
          "type": "address"
        },
        {
          "indexed": true,
          "internalType": "address",
          "name": "approved",
          "type": "address"
        },
        {
          "indexed": true,
          "internalType": "uint256",
          "name": "tokenId",
          "type": "uint256"
        }
      ],
      "name": "Approval",
      "type": "event"
    },
    {
      "anonymous": false,
      "inputs": [
        {
          "indexed": true,
          "internalType": "address",
          "name": "owner",
          "type": "address"
        },
        {
          "indexed": true,
          "internalType": "address",
          "name": "operator",
          "type": "address"
        },
        {
          "indexed": false,
          "internalType": "bool",
          "name": "approved",
          "type": "bool"
        }
      ],
      "name": "ApprovalForAll",
      "type": "event"
    },
    {
      "anonymous": false,
      "inputs": [
        {
          "indexed": true,
          "internalType": "address",
          "name": "previousOwner",
          "type": "address"
        },
        {
          "indexed": true,
          "internalType": "address",
          "name": "newOwner",
          "type": "address"
        }
      ],
      "name": "OwnershipTransferred",
      "type": "event"
    },
    {
      "anonymous": false,
      "inputs": [
        {
          "indexed": true,
          "internalType": "address",
          "name": "from",
          "type": "address"
        },
        {
          "indexed": true,
          "internalType": "address",
          "name": "to",
          "type": "address"
        },
        {
          "indexed": true,
          "internalType": "uint256",
          "name": "tokenId",
          "type": "uint256"
        }
      ],
      "name": "Transfer",
      "type": "event"
    },
    {
      "stateMutability": "payable",
      "type": "fallback"
    },
    {
      "inputs": [],
      "name": "Withdraw",
      "outputs": [],
      "stateMutability": "payable",
      "type": "function"
    },
    {
      "inputs": [],
      "name": "_maxtokenIDs",
      "outputs": [
        {
          "internalType": "uint256",
          "name": "",
          "type": "uint256"
        }
      ],
      "stateMutability": "view",
      "type": "function"
    },
    {
      "inputs": [],
      "name": "_paused",
      "outputs": [
        {
          "internalType": "bool",
          "name": "",
          "type": "bool"
        }
      ],
      "stateMutability": "view",
      "type": "function"
    },
    {
      "inputs": [],
      "name": "_price",
      "outputs": [
        {
          "internalType": "uint256",
          "name": "",
          "type": "uint256"
        }
      ],
      "stateMutability": "view",
      "type": "function"
    },
    {
      "inputs": [
        {
          "internalType": "address",
          "name": "to",
          "type": "address"
        },
        {
          "internalType": "uint256",
          "name": "tokenId",
          "type": "uint256"
        }
      ],
      "name": "approve",
      "outputs": [],
      "stateMutability": "nonpayable",
      "type": "function"
    },
    {
      "inputs": [
        {
          "internalType": "address",
          "name": "owner",
          "type": "address"
        }
      ],
      "name": "balanceOf",
      "outputs": [
        {
          "internalType": "uint256",
          "name": "",
          "type": "uint256"
        }
      ],
      "stateMutability": "view",
      "type": "function"
    },
    {
      "inputs": [
        {
          "internalType": "uint256",
          "name": "tokenId",
          "type": "uint256"
        }
      ],
      "name": "getApproved",
      "outputs": [
        {
          "internalType": "address",
          "name": "",
          "type": "address"
        }
      ],
      "stateMutability": "view",
      "type": "function"
    },
    {
      "inputs": [
        {
          "internalType": "address",
          "name": "owner",
          "type": "address"
        },
        {
          "internalType": "address",
          "name": "operator",
          "type": "address"
        }
      ],
      "name": "isApprovedForAll",
      "outputs": [
        {
          "internalType": "bool",
          "name": "",
          "type": "bool"
        }
      ],
      "stateMutability": "view",
      "type": "function"
    },
    {
      "inputs": [],
      "name": "mint",
      "outputs": [],
      "stateMutability": "payable",
      "type": "function"
    },
    {
      "inputs": [],
      "name": "name",
      "outputs": [
        {
          "internalType": "string",
          "name": "",
          "type": "string"
        }
      ],
      "stateMutability": "view",
      "type": "function"
    },
    {
      "inputs": [],
      "name": "owner",
      "outputs": [
        {
          "internalType": "address",
          "name": "",
          "type": "address"
        }
      ],
      "stateMutability": "view",
      "type": "function"
    },
    {
      "inputs": [
        {
          "internalType": "uint256",
          "name": "tokenId",
          "type": "uint256"
        }
      ],
      "name": "ownerOf",
      "outputs": [
        {
          "internalType": "address",
          "name": "",
          "type": "address"
        }
      ],
      "stateMutability": "view",
      "type": "function"
    },
    {
      "inputs": [
        {
          "internalType": "bool",
          "name": "val",
          "type": "bool"
        }
      ],
      "name": "pause",
      "outputs": [],
      "stateMutability": "nonpayable",
      "type": "function"
    },
    {
      "inputs": [],
      "name": "renounceOwnership",
      "outputs": [],
      "stateMutability": "nonpayable",
      "type": "function"
    },
    {
      "inputs": [
        {
          "internalType": "address",
          "name": "from",
          "type": "address"
        },
        {
          "internalType": "address",
          "name": "to",
          "type": "address"
        },
        {
          "internalType": "uint256",
          "name": "tokenId",
          "type": "uint256"
        }
      ],
      "name": "safeTransferFrom",
      "outputs": [],
      "stateMutability": "nonpayable",
      "type": "function"
    },
    {
      "inputs": [
        {
          "internalType": "address",
          "name": "from",
          "type": "address"
        },
        {
          "internalType": "address",
          "name": "to",
          "type": "address"
        },
        {
          "internalType": "uint256",
          "name": "tokenId",
          "type": "uint256"
        },
        {
          "internalType": "bytes",
          "name": "data",
          "type": "bytes"
        }
      ],
      "name": "safeTransferFrom",
      "outputs": [],
      "stateMutability": "nonpayable",
      "type": "function"
    },
    {
      "inputs": [
        {
          "internalType": "address",
          "name": "operator",
          "type": "address"
        },
        {
          "internalType": "bool",
          "name": "approved",
          "type": "bool"
        }
      ],
      "name": "setApprovalForAll",
      "outputs": [],
      "stateMutability": "nonpayable",
      "type": "function"
    },
    {
      "inputs": [
        {
          "internalType": "bytes4",
          "name": "interfaceId",
          "type": "bytes4"
        }
      ],
      "name": "supportsInterface",
      "outputs": [
        {
          "internalType": "bool",
          "name": "",
          "type": "bool"
        }
      ],
      "stateMutability": "view",
      "type": "function"
    },
    {
      "inputs": [],
      "name": "symbol",
      "outputs": [
        {
          "internalType": "string",
          "name": "",
          "type": "string"
        }
      ],
      "stateMutability": "view",
      "type": "function"
    },
    {
      "inputs": [
        {
          "internalType": "uint256",
          "name": "index",
          "type": "uint256"
        }
      ],
      "name": "tokenByIndex",
      "outputs": [
        {
          "internalType": "uint256",
          "name": "",
          "type": "uint256"
        }
      ],
      "stateMutability": "view",
      "type": "function"
    },
    {
      "inputs": [],
      "name": "tokenIDs",
      "outputs": [
        {
          "internalType": "uint256",
          "name": "",
          "type": "uint256"
        }
      ],
      "stateMutability": "view",
      "type": "function"
    },
    {
      "inputs": [
        {
          "internalType": "address",
          "name": "owner",
          "type": "address"
        },
        {
          "internalType": "uint256",
          "name": "index",
          "type": "uint256"
        }
      ],
      "name": "tokenOfOwnerByIndex",
      "outputs": [
        {
          "internalType": "uint256",
          "name": "",
          "type": "uint256"
        }
      ],
      "stateMutability": "view",
      "type": "function"
    },
    {
      "inputs": [
        {
          "internalType": "uint256",
          "name": "tokenId",
          "type": "uint256"
        }
      ],
      "name": "tokenURI",
      "outputs": [
        {
          "internalType": "string",
          "name": "",
          "type": "string"
        }
      ],
      "stateMutability": "view",
      "type": "function"
    },
    {
      "inputs": [],
      "name": "totalSupply",
      "outputs": [
        {
          "internalType": "uint256",
          "name": "",
          "type": "uint256"
        }
      ],
      "stateMutability": "view",
      "type": "function"
    },
    {
      "inputs": [
        {
          "internalType": "address",
          "name": "from",
          "type": "address"
        },
        {
          "internalType": "address",
          "name": "to",
          "type": "address"
        },
        {
          "internalType": "uint256",
          "name": "tokenId",
          "type": "uint256"
        }
      ],
      "name": "transferFrom",
      "outputs": [],
      "stateMutability": "nonpayable",
      "type": "function"
    },
    {
      "inputs": [
        {
          "internalType": "address",
          "name": "newOwner",
          "type": "address"
        }
      ],
      "name": "transferOwnership",
      "outputs": [],
      "stateMutability": "nonpayable",
      "type": "function"
    },
    {
      "stateMutability": "payable",
      "type": "receive"
    }
  ],
  "bytecode": {
    "object": "0x6080604052662386f26fc10000600c55600a600e553480156200002157600080fd5b50604051620020ff380380620020ff83398101604081905262000044916200013d565b604051806040016040528060058152602001642537b9b2a760d91b815250604051806040016040528060038152602001624a4e3360e81b81525081600090816200008f9190620002a1565b5060016200009e8282620002a1565b505050620000bb620000b5620000d160201b60201c565b620000d5565b600b620000c98282620002a1565b50506200036d565b3390565b600a80546001600160a01b038381166001600160a01b0319831681179093556040519116919082907f8be0079c531659141344cd1fd0a4f28419497f9722a3daafe3b4186f6b6457e090600090a35050565b634e487b7160e01b600052604160045260246000fd5b600060208083850312156200015157600080fd5b82516001600160401b03808211156200016957600080fd5b818501915085601f8301126200017e57600080fd5b81518181111562000193576200019362000127565b604051601f8201601f19908116603f01168101908382118183101715620001be57620001be62000127565b816040528281528886848701011115620001d757600080fd5b600093505b82841015620001fb5784840186015181850187015292850192620001dc565b600086848301015280965050505050505092915050565b600181811c908216806200022757607f821691505b6020821081036200024857634e487b7160e01b600052602260045260246000fd5b50919050565b601f8211156200029c57600081815260208120601f850160051c81016020861015620002775750805b601f850160051c820191505b81811015620002985782815560010162000283565b5050505b505050565b81516001600160401b03811115620002bd57620002bd62000127565b620002d581620002ce845462000212565b846200024e565b602080601f8311600181146200030d5760008415620002f45750858301515b600019600386901b1c1916600185901b17855562000298565b600085815260208120601f198616915b828110156200033e578886015182559484019460019091019084016200031d565b50858210156200035d5787850151600019600388901b60f8161c191681555b5050505050600190811b01905550565b611d82806200037d6000396000f3fe6080604052600436106101735760003560e01c806357ea89b6116100c8578063a22cb46511610084578063c87b56dd11610061578063c87b56dd14610408578063e985e9c514610428578063edf9355e14610471578063f2fde38b1461048757005b8063a22cb465146103b2578063aeffe134146103d2578063b88d4fde146103e857005b806357ea89b6146103225780636352211e1461032a57806370a082311461034a578063715018a61461036a5780638da5cb5b1461037f57806395d89b411461039d57005b806316c61ccc1161012f57806323b872dd1161010c57806323b872dd146102a25780632f745c59146102c257806342842e0e146102e25780634f6ccce71461030257005b806316c61ccc1461025357806318160ddd1461026d578063235b6ea11461028c57005b806301ffc9a71461017c57806302329a29146101b157806306fdde03146101d1578063081812fc146101f3578063095ea7b31461022b5780631249c58b1461024b57005b3661017a57005b005b34801561018857600080fd5b5061019c610197366004611877565b6104a7565b60405190151581526020015b60405180910390f35b3480156101bd57600080fd5b5061017a6101cc3660046118a9565b6104d2565b3480156101dd57600080fd5b506101e66104ed565b6040516101a89190611914565b3480156101ff57600080fd5b5061021361020e366004611927565b61057f565b6040516001600160a01b0390911681526020016101a8565b34801561023757600080fd5b5061017a610246366004611957565b6105a6565b61017a6106c0565b34801561025f57600080fd5b50600d5461019c9060ff1681565b34801561027957600080fd5b506008545b6040519081526020016101a8565b34801561029857600080fd5b5061027e600c5481565b3480156102ae57600080fd5b5061017a6102bd366004611981565b6107b2565b3480156102ce57600080fd5b5061027e6102dd366004611957565b6107e3565b3480156102ee57600080fd5b5061017a6102fd366004611981565b610879565b34801561030e57600080fd5b5061027e61031d366004611927565b610894565b61017a610927565b34801561033657600080fd5b50610213610345366004611927565b6109e0565b34801561035657600080fd5b5061027e6103653660046119bd565b610a40565b34801561037657600080fd5b5061017a610ac6565b34801561038b57600080fd5b50600a546001600160a01b0316610213565b3480156103a957600080fd5b506101e6610ad8565b3480156103be57600080fd5b5061017a6103cd3660046119d8565b610ae7565b3480156103de57600080fd5b5061027e600f5481565b3480156103f457600080fd5b5061017a610403366004611a21565b610af6565b34801561041457600080fd5b506101e6610423366004611927565b610b2e565b34801561043457600080fd5b5061019c610443366004611afd565b6001600160a01b03918216600090815260056020908152604080832093909416825291909152205460ff1690565b34801561047d57600080fd5b5061027e600e5481565b34801561049357600080fd5b5061017a6104a23660046119bd565b610c09565b60006001600160e01b0319821663780e9d6360e01b14806104cc57506104cc82610c82565b92915050565b6104da610cd2565b600d805460ff1916911515919091179055565b6060600080546104fc90611b27565b80601f016020809104026020016040519081016040528092919081815260200182805461052890611b27565b80156105755780601f1061054a57610100808354040283529160200191610575565b820191906000526020600020905b81548152906001019060200180831161055857829003601f168201915b5050505050905090565b600061058a82610d2c565b506000908152600460205260409020546001600160a01b031690565b60006105b1826109e0565b9050806001600160a01b0316836001600160a01b0316036106235760405162461bcd60e51b815260206004820152602160248201527f4552433732313a20617070726f76616c20746f2063757272656e74206f776e656044820152603960f91b60648201526084015b60405180910390fd5b336001600160a01b038216148061063f575061063f8133610443565b6106b15760405162461bcd60e51b815260206004820152603d60248201527f4552433732313a20617070726f76652063616c6c6572206973206e6f7420746f60448201527f6b656e206f776e6572206f7220617070726f76656420666f7220616c6c000000606482015260840161061a565b6106bb8383610d8b565b505050565b600d5460ff16156107085760405162461bcd60e51b815260206004820152601260248201527118dbdb9d1c9858dd081a5cc81c185d5cd95960721b604482015260640161061a565b600e54600f54106107465760405162461bcd60e51b815260206004820152600860248201526714dbdb19081bdd5d60c21b604482015260640161061a565b600c5434101561078f5760405162461bcd60e51b8152602060048201526014602482015273125b98dbdc9c9958dd0815985b1d594814d95b9d60621b604482015260640161061a565b600f805490600061079f83611b77565b91905055506107b033600f54610df9565b565b6107bc3382610e13565b6107d85760405162461bcd60e51b815260040161061a90611b90565b6106bb838383610e92565b60006107ee83610a40565b82106108505760405162461bcd60e51b815260206004820152602b60248201527f455243373231456e756d657261626c653a206f776e657220696e646578206f7560448201526a74206f6620626f756e647360a81b606482015260840161061a565b506001600160a01b03919091166000908152600660209081526040808320938352929052205490565b6106bb83838360405180602001604052806000815250610af6565b600061089f60085490565b82106109025760405162461bcd60e51b815260206004820152602c60248201527f455243373231456e756d657261626c653a20676c6f62616c20696e646578206f60448201526b7574206f6620626f756e647360a01b606482015260840161061a565b6008828154811061091557610915611bdd565b90600052602060002001549050919050565b61092f610cd2565b6000610943600a546001600160a01b031690565b60405190915047906000906001600160a01b0384169083908381818185875af1925050503d8060008114610993576040519150601f19603f3d011682016040523d82523d6000602084013e610998565b606091505b50509050806106bb5760405162461bcd60e51b81526020600482015260146024820152732330b4b632b2103a379039b2b7321022ba3432b960611b604482015260640161061a565b6000818152600260205260408120546001600160a01b0316806104cc5760405162461bcd60e51b8152602060048201526018602482015277115490cdcc8c4e881a5b9d985b1a59081d1bdad95b88125160421b604482015260640161061a565b60006001600160a01b038216610aaa5760405162461bcd60e51b815260206004820152602960248201527f4552433732313a2061646472657373207a65726f206973206e6f7420612076616044820152683634b21037bbb732b960b91b606482015260840161061a565b506001600160a01b031660009081526003602052604090205490565b610ace610cd2565b6107b06000611003565b6060600180546104fc90611b27565b610af2338383611055565b5050565b610b003383610e13565b610b1c5760405162461bcd60e51b815260040161061a90611b90565b610b2884848484611123565b50505050565b6000818152600260205260409020546060906001600160a01b0316610bad5760405162461bcd60e51b815260206004820152602f60248201527f4552433732314d657461646174613a2055524920717565727920666f72206e6f60448201526e3732bc34b9ba32b73a103a37b5b2b760891b606482015260840161061a565b6000610bb7611156565b90506000815111610bd75760405180602001604052806000815250610c02565b80610be184611165565b604051602001610bf2929190611bf3565b6040516020818303038152906040525b9392505050565b610c11610cd2565b6001600160a01b038116610c765760405162461bcd60e51b815260206004820152602660248201527f4f776e61626c653a206e6577206f776e657220697320746865207a65726f206160448201526564647265737360d01b606482015260840161061a565b610c7f81611003565b50565b60006001600160e01b031982166380ac58cd60e01b1480610cb357506001600160e01b03198216635b5e139f60e01b145b806104cc57506301ffc9a760e01b6001600160e01b03198316146104cc565b600a546001600160a01b031633146107b05760405162461bcd60e51b815260206004820181905260248201527f4f776e61626c653a2063616c6c6572206973206e6f7420746865206f776e6572604482015260640161061a565b6000818152600260205260409020546001600160a01b0316610c7f5760405162461bcd60e51b8152602060048201526018602482015277115490cdcc8c4e881a5b9d985b1a59081d1bdad95b88125160421b604482015260640161061a565b600081815260046020526040902080546001600160a01b0319166001600160a01b0384169081179091558190610dc0826109e0565b6001600160a01b03167f8c5be1e5ebec7d5bd14f71427d1e84f3dd0314c0f7b2291e5b200ac8c7c3b92560405160405180910390a45050565b610af28282604051806020016040528060008152506111f8565b600080610e1f836109e0565b9050806001600160a01b0316846001600160a01b03161480610e6657506001600160a01b0380821660009081526005602090815260408083209388168352929052205460ff165b80610e8a5750836001600160a01b0316610e7f8461057f565b6001600160a01b0316145b949350505050565b826001600160a01b0316610ea5826109e0565b6001600160a01b031614610ecb5760405162461bcd60e51b815260040161061a90611c32565b6001600160a01b038216610f2d5760405162461bcd60e51b8152602060048201526024808201527f4552433732313a207472616e7366657220746f20746865207a65726f206164646044820152637265737360e01b606482015260840161061a565b610f3a838383600161122b565b826001600160a01b0316610f4d826109e0565b6001600160a01b031614610f735760405162461bcd60e51b815260040161061a90611c32565b600081815260046020908152604080832080546001600160a01b03199081169091556001600160a01b0387811680865260038552838620805460001901905590871680865283862080546001019055868652600290945282852080549092168417909155905184937fddf252ad1be2c89b69c2b068fc378daa952ba7f163c4a11628f55a4df523b3ef91a4505050565b600a80546001600160a01b038381166001600160a01b0319831681179093556040519116919082907f8be0079c531659141344cd1fd0a4f28419497f9722a3daafe3b4186f6b6457e090600090a35050565b816001600160a01b0316836001600160a01b0316036110b65760405162461bcd60e51b815260206004820152601960248201527f4552433732313a20617070726f766520746f2063616c6c657200000000000000604482015260640161061a565b6001600160a01b03838116600081815260056020908152604080832094871680845294825291829020805460ff191686151590811790915591519182527f17307eab39ab6107e8899845ad3d59bd9653f200f220920489ca2b5937696c31910160405180910390a3505050565b61112e848484610e92565b61113a8484848461135f565b610b285760405162461bcd60e51b815260040161061a90611c77565b6060600b80546104fc90611b27565b6060600061117283611460565b600101905060008167ffffffffffffffff81111561119257611192611a0b565b6040519080825280601f01601f1916602001820160405280156111bc576020820181803683370190505b5090508181016020015b600019016f181899199a1a9b1b9c1cb0b131b232b360811b600a86061a8153600a85049450846111c657509392505050565b6112028383611538565b61120f600084848461135f565b6106bb5760405162461bcd60e51b815260040161061a90611c77565b600181111561129a5760405162461bcd60e51b815260206004820152603560248201527f455243373231456e756d657261626c653a20636f6e7365637574697665207472604482015274185b9cd9995c9cc81b9bdd081cdd5c1c1bdc9d1959605a1b606482015260840161061a565b816001600160a01b0385166112f6576112f181600880546000838152600960205260408120829055600182018355919091527ff3f7a9fe364faab93b216da50a3214154f22a0a2b415b23a84c8169e8b636ee30155565b611319565b836001600160a01b0316856001600160a01b0316146113195761131985826116d1565b6001600160a01b038416611335576113308161176e565b611358565b846001600160a01b0316846001600160a01b03161461135857611358848261181d565b5050505050565b60006001600160a01b0384163b1561145557604051630a85bd0160e11b81526001600160a01b0385169063150b7a02906113a3903390899088908890600401611cc9565b6020604051808303816000875af19250505080156113de575060408051601f3d908101601f191682019092526113db91810190611d06565b60015b61143b573d80801561140c576040519150601f19603f3d011682016040523d82523d6000602084013e611411565b606091505b5080516000036114335760405162461bcd60e51b815260040161061a90611c77565b805181602001fd5b6001600160e01b031916630a85bd0160e11b149050610e8a565b506001949350505050565b60008072184f03e93ff9f4daa797ed6e38ed64bf6a1f0160401b831061149f5772184f03e93ff9f4daa797ed6e38ed64bf6a1f0160401b830492506040015b6d04ee2d6d415b85acef810000000083106114cb576d04ee2d6d415b85acef8100000000830492506020015b662386f26fc1000083106114e957662386f26fc10000830492506010015b6305f5e1008310611501576305f5e100830492506008015b612710831061151557612710830492506004015b60648310611527576064830492506002015b600a83106104cc5760010192915050565b6001600160a01b03821661158e5760405162461bcd60e51b815260206004820181905260248201527f4552433732313a206d696e7420746f20746865207a65726f2061646472657373604482015260640161061a565b6000818152600260205260409020546001600160a01b0316156115f35760405162461bcd60e51b815260206004820152601c60248201527f4552433732313a20746f6b656e20616c7265616479206d696e74656400000000604482015260640161061a565b61160160008383600161122b565b6000818152600260205260409020546001600160a01b0316156116665760405162461bcd60e51b815260206004820152601c60248201527f4552433732313a20746f6b656e20616c7265616479206d696e74656400000000604482015260640161061a565b6001600160a01b038216600081815260036020908152604080832080546001019055848352600290915280822080546001600160a01b0319168417905551839291907fddf252ad1be2c89b69c2b068fc378daa952ba7f163c4a11628f55a4df523b3ef908290a45050565b600060016116de84610a40565b6116e89190611d23565b60008381526007602052604090205490915080821461173b576001600160a01b03841660009081526006602090815260408083208584528252808320548484528184208190558352600790915290208190555b5060009182526007602090815260408084208490556001600160a01b039094168352600681528383209183525290812055565b60085460009061178090600190611d23565b600083815260096020526040812054600880549394509092849081106117a8576117a8611bdd565b9060005260206000200154905080600883815481106117c9576117c9611bdd565b600091825260208083209091019290925582815260099091526040808220849055858252812055600880548061180157611801611d36565b6001900381819060005260206000200160009055905550505050565b600061182883610a40565b6001600160a01b039093166000908152600660209081526040808320868452825280832085905593825260079052919091209190915550565b6001600160e01b031981168114610c7f57600080fd5b60006020828403121561188957600080fd5b8135610c0281611861565b803580151581146118a457600080fd5b919050565b6000602082840312156118bb57600080fd5b610c0282611894565b60005b838110156118df5781810151838201526020016118c7565b50506000910152565b600081518084526119008160208601602086016118c4565b601f01601f19169290920160200192915050565b602081526000610c0260208301846118e8565b60006020828403121561193957600080fd5b5035919050565b80356001600160a01b03811681146118a457600080fd5b6000806040838503121561196a57600080fd5b61197383611940565b946020939093013593505050565b60008060006060848603121561199657600080fd5b61199f84611940565b92506119ad60208501611940565b9150604084013590509250925092565b6000602082840312156119cf57600080fd5b610c0282611940565b600080604083850312156119eb57600080fd5b6119f483611940565b9150611a0260208401611894565b90509250929050565b634e487b7160e01b600052604160045260246000fd5b60008060008060808587031215611a3757600080fd5b611a4085611940565b9350611a4e60208601611940565b925060408501359150606085013567ffffffffffffffff80821115611a7257600080fd5b818701915087601f830112611a8657600080fd5b813581811115611a9857611a98611a0b565b604051601f8201601f19908116603f01168101908382118183101715611ac057611ac0611a0b565b816040528281528a6020848701011115611ad957600080fd5b82602086016020830137600060208483010152809550505050505092959194509250565b60008060408385031215611b1057600080fd5b611b1983611940565b9150611a0260208401611940565b600181811c90821680611b3b57607f821691505b602082108103611b5b57634e487b7160e01b600052602260045260246000fd5b50919050565b634e487b7160e01b600052601160045260246000fd5b600060018201611b8957611b89611b61565b5060010190565b6020808252602d908201527f4552433732313a2063616c6c6572206973206e6f7420746f6b656e206f776e6560408201526c1c881bdc88185c1c1c9bdd9959609a1b606082015260800190565b634e487b7160e01b600052603260045260246000fd5b60008351611c058184602088016118c4565b835190830190611c198183602088016118c4565b64173539b7b760d91b9101908152600501949350505050565b60208082526025908201527f4552433732313a207472616e736665722066726f6d20696e636f72726563742060408201526437bbb732b960d91b606082015260800190565b60208082526032908201527f4552433732313a207472616e7366657220746f206e6f6e20455243373231526560408201527131b2b4bb32b91034b6b83632b6b2b73a32b960711b606082015260800190565b6001600160a01b0385811682528416602082015260408101839052608060608201819052600090611cfc908301846118e8565b9695505050505050565b600060208284031215611d1857600080fd5b8151610c0281611861565b818103818111156104cc576104cc611b61565b634e487b7160e01b600052603160045260246000fdfea26469706673582212202a7c6c42c73ed823c3f3c235bd32bb27844c583a7e05929f61468ae66ed7e9ff64736f6c63430008120033",
    "linkReferences": {}
  },
  "methodIdentifiers": {
    "Withdraw()": "57ea89b6",
    "_maxtokenIDs()": "edf9355e",
    "_paused()": "16c61ccc",
    "_price()": "235b6ea1",
    "approve(address,uint256)": "095ea7b3",
    "balanceOf(address)": "70a08231",
    "getApproved(uint256)": "081812fc",
    "isApprovedForAll(address,address)": "e985e9c5",
    "mint()": "1249c58b",
    "name()": "06fdde03",
    "owner()": "8da5cb5b",
    "ownerOf(uint256)": "6352211e",
    "pause(bool)": "02329a29",
    "renounceOwnership()": "715018a6",
    "safeTransferFrom(address,address,uint256)": "42842e0e",
    "safeTransferFrom(address,address,uint256,bytes)": "b88d4fde",
    "setApprovalForAll(address,bool)": "a22cb465",
    "supportsInterface(bytes4)": "01ffc9a7",
    "symbol()": "95d89b41",
    "tokenByIndex(uint256)": "4f6ccce7",
    "tokenIDs()": "aeffe134",
    "tokenOfOwnerByIndex(address,uint256)": "2f745c59",
    "tokenURI(uint256)": "c87b56dd",
    "totalSupply()": "18160ddd",
    "transferFrom(address,address,uint256)": "23b872dd",
    "transferOwnership(address)": "f2fde38b"
  },
  "id": 14
}